:1000000018308A0000280000FF00030E8301A100C1
:100010000A08A0008A010408A2007708A300780853
:10002000A4007908A5007A08A600831383128B1E0A
:100030001B280B192C28220884002308F700240809
:10004000F8002508F9002608FA0020088A00210E89
:100050008300FF0E7F0E09008A110A12372F0A1043
:100060008A100A11363E03188A0A82002D342D3474
:100070002D342D342D342C342B342A342834273489
:10008000263425342334223421341F341E341C34C6
:100090001B34193418341634143413341134123414
:1000A000123412341234123413341334133413341C
:1000B00013341334133413341334123412342A34F3
:1000C0002A342A342A342A3431343734393439340E
:1000D00038343734363435343434333432343034DD
:1000E0002F342E342C342B342A342934283427341A
:1000F000283429342A342B342C342D342E342F3404
:100100003134333431342F342E342D342C342B34D9
:10011000283428342834283428342F3434343934DB
:100120003D34413440343F343F343E343D343C343C
:100130003B343A3439343734363435343434333468
:1001400033343334343435343634373439343A3460
:100150003B343D343F343D343B343A343934373426
:100160003634253425342534253425342C343234A2
:1001700037343A343E3441344434443444344334E0
:100180004234413440343F343E343D343D343D34D8
:100190003D343D343D343D343D343D343E343F34D4
:1001A00041344234433445344334423441343F349F
:1001B0003E343D34223422342234223422342A3450
:1001C0003034353439343C343F34413443344534AD
:1001D0004734463445344534463446344634463450
:1001E000463446344634463446344634463446343F
:1001F000463446344634473449344734463446342A
:100200004634463446341D341D341D341D341D34EB
:1002100026342D34323437343A343D343F3442348A
:10022000453448344A344D344D344E344E344E34D3
:100230004E344E344E344E344E344E344E344E34AE
:100240004E344E344E344E344D344C344D344E34A2
:100250004E344E344E344E340A148A100A11333E52
:1002600003188A0A820018341834183418341834E1
:10027000223429342F34343437343C343F3443343B
:10028000463449344B344E3450345234543456345A
:10029000563456345634563456345634563456340E
:1002A0005634563455345534543454345434553407
:1002B00055345634563456341234123412341234FF
:1002C00012341D3426342D34333437343C343F3427
:1002D0004334463449344B344E345034523454341D
:1002E000563458345A345C345E345E345E345E3492
:1002F0005E345E345E345E345E345E345F345E346D
:100300005E345E345E345E345E3411341134113444
:10031000113411341D3425342D34333437343C3406
:100320003F344334463449344B344E3450345234E1
:100330005434563458345A345C345E345E345E344B
:100340005E345E345E345E345E345E345E345F341C
:100350005E345E345E345E345E345E3411341134A7
:100360001134113411341D3425342D3433343734E1
:100370003C343F344334463449344B344E345034A7
:1003800052345434563458345A345C345E345E3407
:100390005E345E345E345E345E345E345E345E34CD
:1003A0005F345E345E345E345E345E345E34113409
:1003B00011341134113411341D3425342D343334B7
:1003C00037343C343F344334463449344B344E3470
:1003D000503452345434563458345A345C345E34C5
:1003E0005E345E345E345E345E345E345E345E347D
:1003F0005E345F345E345E345E345E345E345E346C
:1004000027342734273427342734383446344E34BD
:1004100051345434563458345A345C345E345F3476
:100420006134633464346634683469346B346D34F5
:100430006E346F346F34703470347134713472349C
:100440007334743476347434733472347134713474
:1004500070340A108A140A11303E03188A0A820086
:10046000333433343334333433343F344B3455340E
:100470005F34673468346A346B346C346D346E3492
:100480006F3471347234733475347634783479342B
:100490007B347B347C347C347D347E347F348034D4
:1004A0008134833485348334813480347F347E34A2
:1004B0007D343C343C343C343C343C3445344E3460
:1004C00056345F3466346D3473347734773478342B
:1004D00079347A347B347C347D347E348034813496
:1004E000833485348534853486348634873489343E
:1004F0008A348B348D348F348D348B348A34883401
:1005000087348534423442344234423442344B34AA
:1005100053345A34603465346C34713477347C34F9
:10052000813481348234833484348534873489340B
:100530008B348D348F348F348F348F348F348F34A9
:100540009034913492349434963494349234913477
:100550008F348E348E3448344834483448344834E8
:10056000503457345D34633468346D3471347534C9
:100570007B3481348434873489348B348D348F34A4
:10058000913493349534973497349734973497341F
:100590009734973497349734973496349734973404
:1005A00097349734973497344D344D344D344D341B
:1005B0004D3454345B34613466346B347034743489
:1005C00078347D348134853489348E349134953453
:1005D00097349A349C349E34A034A034A034A03490
:1005E000A034A0349E349D349B349834963499348E
:1005F0009B349D349F34A134A1345134513451344F
:100600005134513458345E3464346A346F34743441
:1006100078347D348134853489348D349134963402
:100620009A349E34A234A534A734A934A934A93409
:10063000A934A734A634A434A234A1349E349C3403
:100640009F34A134A334A634A834A9340A148A14DC
:100650000A112D3E03188A0A820055345534553448
:10066000553455345C34623468346E3473347834C1
:100670007D34823486348A348F34933497349B3477
:100680009F34A434A834AC34B034B334B234B1346D
:10069000B034AE34AD34AC34AA34A834A734A53465
:1006A000A734AA34AC34AF34B134B3345A345A34E6
:1006B0005A345A345A34613467346D34733478346C
:1006C0007E34823487348C349034953499349D341C
:1006D000A234A634AB34B034B434B834BC34BB34F4
:1006E000BA34B934B834B734B634B434B334B234B9
:1006F000B034B334B534B834BB34BD34C0345E34F4
:100700005E345E345E345E3465346C347234783416
:100710007E34833488348D34923496349B349F34C1
:10072000A434A834AD34B234B734BC34C234C83481
:10073000C734C634C534C534C434C334C334C234F6
:10074000C134C134C334C634C934CB34CE34D134CB
:100750005E345E345E345E345E3465346C347234E0
:1007600078347E34833488348D34923496349B3498
:100770009F34A434A834AD34B234B734BC34C2345A
:10078000C834C734C634C534C534C434C334C334A0
:10079000C234C134C134C334C634C934CB34CE348A
:1007A000D1345E345E345E345E345E3465346C3431
:1007B000723478347E34833488348D349234963471
:1007C0009B349F34A434A834AD34B234B734BC3431
:1007D000C234C834C734C634C534C534C434C33451
:1007E000C334C234C134C134C334C634C934CB3445
:1007F000CE34D1345E345E345E345E345E3465347F
:100800006C34723478347E34833488348D3492344A
:1008100096349B349F34A434A834AD34B234B73406
:10082000BC34C234C834C734C634C534C534C43407
:10083000C334C334C234C134C134C334C634C934FC
:10084000CB34CE34D1340A108A100A152A3E03184C
:100850008A0A82005E345E345E345E345E3465340F
:100860006C34723478347E34833488348D349234EA
:1008700096349B349F34A434A834AD34B234B734A6
:10088000BC34C234C834C734C634C534C534C434A7
:10089000C334C334C234C134C134C334C634C9349C
:1008A000CB34CE34D1345E345E345E345E345E3468
:1008B00065346C34723478347E34833488348D34C7
:1008C000923496349B349F34A434A834AD34B2347B
:1008D000B734BC34C234C834C734C634C534C53464
:1008E000C434C334C334C234C134C134C334C63451
:1008F000C934CB34CE34D1345E345E345E345E34AD
:100900005E3465346C34723478347E3483348834A5
:100910008D34923496349B349F34A434A834AD344F
:10092000B234B734BC34C234C834C734C634C53426
:10093000C534C434C334C334C234C134C134C33401
:10094000C634C934CB34CE34D1345E345E345E34F4
:100950005E345E3465346C34723478347E3483347F
:1009600088348D34923496349B349F34A434A83424
:10097000AD34B234B734BC34C234C834C734C634EE
:10098000C534C534C434C334C334C234C134C134AF
:10099000C334C634C934CB34CE34D1345E345E343F
:1009A0005E345E345E3465346C34723478347E3454
:1009B000833488348D34923496349B349F34A434F9
:1009C000A834AD34B234B734BC34C234C834C734BC
:1009D000C634C534C534C434C334C334C234C1345A
:1009E000C134C334C634C934CB34CE34D1345E348C
:1009F0005E345E345E345E3465346C347234783424
:100A00007E34833488348D34923496349B349F34CE
:100A1000A434A834AD34B234B734BC34C234C8348E
:100A2000C734C634C534C534C434C334C334C23403
:100A3000C134C134C334C634C934CB34CE34D134D8
:100A40000A148A100A1582075E345E345E345E34FE
:100A50005E3465346C34723478347E348334883454
:100A60008D34923496349B349F34A434A834AD34FE
:100A7000B234B734BC34C234C834C734C634C534D5
:100A8000C534C434C334C334C234C134C134C334B0
:100A9000C634C934CB34CE34D1345E345E345E34A3
:100AA0005E345E3465346C34723478347E3483342E
:100AB00088348D34923496349B349F34A434A834D3
:100AC000AD34B234B734BC34C234C834C734C6349D
:100AD000C534C534C434C334C334C234C134C1345E
:100AE000C334C634C934CB34CE34D1345E345E34EE
:100AF0005E345E345E3465346C34723478347E3403
:100B0000833488348D34923496349B349F34A434A7
:100B1000A834AD34B234B734BC34C234C834C7346A
:100B2000C634C534C534C434C334C334C234C13408
:100B3000C134C334C634C934CB34CE34D1345E343A
:100B40005E345E345E345E3465346C3472347834D2
:100B50007E34833488348D34923496349B349F347D
:100B6000A434A834AD34B234B734BC34C234C8343D
:100B7000C734C634C534C534C434C334C334C234B2
:100B8000C134C134C334C634C934CB34CE34D13487
:100B90005E345E345E345E345E3465346C3472349C
:100BA00078347E34833488348D34923496349B3454
:100BB0009F34A434A834AD34B234B734BC34C23416
:100BC000C834C734C634C534C534C434C334C3345C
:100BD000C234C134C134C334C634C934CB34CE3446
:100BE000D1348030831CF72D8316C0068312831600
:100BF000C501C6013C08C4004008C4063B080319EF
:100C0000E52EC300F7003F080319EE2EC3020319B7
:100C10008A2E031C482E4008C900C9174108C80085
:100C20004208C700C6010310C90CC80CC70CC60C8B
:100C3000C30B122EC41F1F2E4514022F4510431044
:100C40004516BE3084008313172F4512C41B322E65
:100C5000431C3D2EC90CC80CC70CC60CF70A03195F
:100C6000FD2E3D2EC91B402E0310C60DC70DC80D0D
:100C7000C90DF7030319FD2E322E4517AA2E451371
:100C80003C08C400C41F462EC917F62EC913F62E01
:100C90003F08C300F7003B08C3023C08C900C9175E
:100CA0003D08C8003E08C700C6010310C90CC80CA7
:100CB000C70CC60CC30B542EC41F612EC514022FC3
:100CC000C5104310C516C23084008313172FC512F8
:100CD000C41B742E431C7F2EC90CC80CC70CC60C39
:100CE000F70A0319FD2E7F2EC91B822E0310C60D95
:100CF000C70DC80DC90DF7030319FD2E742EC517B6
:100D0000AA2EC5134008C400C41F882EC917F62E8A
:100D1000C913F62E4008C900C9174108C800420887
:100D2000C700C41F972EC9134515022F4511C601D0
:100D30004310BE3084008313172FC41BC02E3C0801
:100D4000C400431CAA2EC90CC80CC70CC60CF70A59
:100D50000319FD2EC61FBB2EC70A031DBB2EC80AD2
:100D6000031DBB2EC90A031DBB2EC90CC80CC70C22
:100D7000F70A0319FD2E451B3F2EC51B812EDF2EC2
:100D80008030C906C91FC82E022F4008C400D52EC6
:100D90003C08C400C908031DD52EC808031DD52E64
:100DA000C708031DD52EF701F62EC91BDF2E031031
:100DB000C60DC70DC80DC90DF70BD52EFD2EC41FCE
:100DC000E32EC917F62EC913F62E3F08F700400888
:100DD000C9004108C8004208C700F62E3B08F700CA
:100DE0003C08C9003D08C8003E08C7004908F80093
:100DF0004808F9004708FA00352FF701F801F90112
:100E0000FA01352FC601C709C809C909C609C60AAA
:100E1000031D102FC70A031D102FC80A0319C90A82
:100E200045181E2EC518602E4519962EC52E000891
:100E3000C707031C212FC80A031D212FC90A031944
:100E4000431484030008C807031C292FC90A031987
:100E5000431484030008801F803AC9070318431411
:100E6000451A252EC51A672E9D2E83120800CF30F5
:100E70008100B40A0319B50A3408903C031D762F8B
:100E8000350B762F83142B088316BE0083122A0895
:100E90008316BD00831229088316BC00831228081C
:100EA0008316BB0083122F088316C20083122E08FC
:100EB0008316C10083122D088316C00083122C08EC
:100EC0008316BF008312F1257A08B3007908B200B7
:100ED0007808B1007708B0002B08AF002A08AE00F0
:100EE0002908AD002808AC00B501B4010B118A1126
:100EF0000A121B28541DA01266162032541DA0127F
:100F00006616A037753ABA127505802C47308400F2
:100F1000831300080319992F0630F800F701F70B27
:100F20008F2FF80B8E2F7B30F700F70B952F800B50
:100F30008C2F08008E30F70083162908F800280847
:100F4000F900FA01F808031DAF2F7908F800F9013C
:100F50000830F702F808031DAF2FF701B72F031071
:100F6000F81BB62FF90DF80DF703AF2FF813831206
:100F700008008E30F7007C08F8007B08F900FA01C1
:100F8000FC1FC72FF809F909F90A0319F80AF8082C
:100F9000031DD42F7908F800F9010830F702F8088A
:100FA000031DD42FF701DD2F0310F81BDB2FF90DE4
:100FB000F80DF703D42FFC1FF81308008E30F7004C
:100FC00083162008F7022108F9002208F800F91713
:100FD000F7080319F62F0310F908031DF22FF8087C
:100FE0000319F62FF90CF80CF70BEB2FA11FFD2FAF
:0E0FF000F809F909F80A0319F90A8312080032
:101000008316280803197128B0002C0803197128C9
:10101000B007031812287F30B002031C712803198F
:10102000712816288130B007031871283008F7009E
:10103000F801F901FA012908B400B4172A08B3002D
:101040002B08B2001830B000B101321C3F282F0825
:10105000FA07031C3128F90A031D3128F80A03197D
:10106000B1172E08F907031C3828F80A0319B1171D
:101070002D08AA00AA172A08F8070318B117B10DFE
:10108000F80CF90CFA0CB40CB30CB20C0310B00B46
:1010900024280130F70703187128F81B5628B40DCF
:1010A000FA0DF90DF80DF70303197128B41F67281D
:1010B000FA0A031D6728F90A031D6728F80A031DA9
:1010C0006728F80CF90CFA0CF70A0319712829089B
:1010D000B1002D08B106B11F6F28F8177528F81355
:1010E0007528F701F801F901FA0183120800831647
:1010F000280803193D29B4002C0803193D29B4021E
:10110000031C87287F30B40703183D298D288130C0
:10111000B402031C3D2903193D293408F700F801E6
:10112000F901FA01B3012908B200B2172A08B10087
:101130002B08B0001930B4002F08B0020318B028F3
:101140000130B1020318B028B2020318B028B3026C
:101150000318B028B30AB20AB10A2F08B007E22870
:101160002E08B1020318CB280130B2020318CB2895
:10117000B3020318CB28B30AB20A2E08B1072F080E
:10118000B007031CE228B10A031DE228B20A031DBE
:10119000E228B30AE2282D088038B2020318E128B9
:1011A0000130B3020318E128B30A2D088038B207D2
:1011B0002E08B107031CBF28B20A031DBF28B30ABB
:1011C000BF287A14B40BE528F0280310B00DB10D38
:1011D000B20DB30D0310FA0DF90DF80DB50D9C28E5
:1011E000351CF8280310F80CF90CFA0CB50CFB2888
:1011F000F70303193D29B51B24290310B00DB10DC8
:10120000B20DB30D2F08B002031810290130B1023E
:1012100003181029B20203181029B302031C332942
:101220002E08B10203181B290130B20203181B2932
:10123000B302031C33292D088038B2020318242975
:101240000130B302031C3329FA0A031D3329F90ABA
:10125000031D3329F80A031D3329F70A03193D2911
:10126000F80CF90CFA0C2908B4002D08B406B41FC8
:101270003B29F8174129F8134129F701F801F90131
:10128000FA01831208000030F8001F08C7397804FB
:101290009F001030F700F70B4B2900001F151F1996
:1012A0004F2983161E088312BA001E08BB003B0894
:1012B0008316A90083123A088316A8008A118312A4
:1012C0009A278A150A308316AB002830AA002030EE
:1012D000A9007730A8007A08AF007908AE00780836
:1012E000AD007708AC00831200207A08D600790898
:1012F000D5007808D4007708D3008314A7018B1B8E
:10130000A7178B138316BE01BD012030BC008130AE
:10131000BB00831256088316C20083125508831639
:10132000C100831254088316C00083125308831629
:10133000BF008A118312F1258A15A71B8B177A0823
:10134000CE007908CD007808CC007708CB004E0895
:101350008316AB0083124D088316AA0083124C0833
:101360008316A90083124B088316A800AF016030D2
:10137000AE001A30AD008C30AC00831277205608D6
:101380008316AB00831255088316AA0083125408F3
:101390008316A900831253088316A8007A08AF00A9
:1013A0007908AE007808AD007708AC00831277208A
:1013B0007A08CA007908C9007808C8007708C70009
:1013C0004A088316AB00831249088316AA008312C9
:1013D00048088316A900831247088316A800AF01A6
:1013E0009830AE001930AD008C30AC0083127720FD
:1013F0007A08DE007908DD007808DC007708DB0079
:101400005E08E2005D08E1005C08E0005B08DF00C8
:101410006208E6006108E5006008E4005F08E30098
:101420006608FE006508FD006408FC006308FB0018
:101430008316A301A201A1017F30A0007C08A400B3
:101440002108A406A41F292A03110310FC1B03145E
:101450005C2A7C08A4002008A5007B08A5020319CB
:10146000372AA41F5C2A0308013A83005C2A21085A
:10147000A5007C08A5020319432AA41F5C2A0308BF
:10148000013A83005C2A2208A5007D08A502031901
:101490004F2AA41F5C2A0308013A83005C2A230810
:1014A000A5007E08A50203195B2AA41F5C2A030875
:1014B000013A83005C2A03100319772CFC01633086
:1014C000FB007B08840083137C1883177E30800028
:1014D00083148312A7018B1BA7178B13660883162F
:1014E000BE00831265088316BD008312640883164C
:1014F000BC00831263088316BB00C201C101C00196
:101500007F30BF008A118312F1258A15A71B8B1724
:101510007A08FE007908FD007808FC007708FB00D7
:101520008310A7018B1BA7178B1366088316BE00B9
:10153000831265088316BD00831264088316BC00FD
:10154000831263088316BB00C201C101C0017F3052
:10155000BF008A118312F1258A15A71B8B177E08FD
:101560008316AB007D08AA007C08A9007B08A800B0
:101570007A08AF007908AE007808AD007708AC00B3
:10158000831277207A08E6007908E5007808E400FD
:101590007708E30066088316AB008312650883169C
:1015A000AA00831264088316A900831263088316B5
:1015B000A800831266088316AF008312650883169D
:1015C000AE00831264088316AD008312630883168D
:1015D000AC00831200207A08F2007908F100780844
:1015E000F0007708EF0099308316AB004730AA006F
:1015F0008A30A9007F30A8007208AF007108AE00E1
:101600007008AD0083126F088316AC0083120020AF
:101610007A08FE007908FD007808FC007708FB00D6
:101620008310A7018B1BA7178B137A088316BE00A4
:101630007908BD007808BC007708BB00C201C10171
:10164000C0018030BF008A118312F1258A15A71BC3
:101650008B177A08EA007908E9007808E80077082B
:10166000E7004C308316AB00F330AA003A30A900F3
:101670007B30A8007208AF007108AE007008AD00A2
:1016800083126F088316AC00831200207A08FE00D4
:101690007908FD007808FC007708FB008310A7019B
:1016A0008B1BA7178B137A088316BE007908BD0021
:1016B0007808BC007708BB002B30C2009D30C10009
:1016C000DF30C0007E30BF008A118312F1258A15F9
:1016D000A71B8B177A08EE007908ED007808EC005C
:1016E0007708EB006E088316AB0083126D08831633
:1016F000AA0083126C088316A90083126B08831654
:10170000A8007208AF007108AE007008AD00831227
:101710006F088316AC00831200207A08FE00790857
:10172000FD007808FC007708FB008310A7018B1BE5
:10173000A7178B137A088316BE007908BD007808B6
:10174000BC007708BB00C201C101C0017F30BF00EF
:101750008A118312F1258A15A71B8B177A08EE00D0
:101760007908ED007808EC007708EB00660883162E
:10177000AB00831265088316AA00831264088316DF
:10178000A900831263088316A80083126A088316CF
:10179000AF00831269088316AE00831268088316AF
:1017A000AD00831267088316AC00831200207A080C
:1017B000FE007908FD007808FC007708FB007A0835
:1017C0008316AB007908AA007808A9007708A8005A
:1017D00083126E088316AF0083126D088316AE0065
:1017E00083126C088316AD0083126B088316AC005D
:1017F000831277207A08EA007908E9007808E8007F
:101800007708E700FC015F30FB007B08840083134E
:101810007C1883177E300002F300F31F222C73081C
:10182000003CFC01FB00FB1BFC038A11B9278A1555
:101830007708EB007808803AEC007908ED007A0828
:10184000EE00322CFC017308FB00FB1BFC038A1129
:10185000B9278A157A08EE007908ED007808EC00BF
:101860007708EB006E088316AB0083126D088316B1
:10187000AA0083126C088316A90083126B088316D2
:10188000A8001830AF007230AE003130AD007E30AD
:10189000AC00831200208310A7018B1BA7178B13AA
:1018A0006A088316BE00831269088316BD0083127E
:1018B00068088316BC00831267088316BB007A0889
:1018C000C2007908C1007808C0007708BF008A11FB
:1018D0008312F1258A15A71B8B177A08EA0079086D
:1018E000E9007808E8007708E7007C2C831683126B
:1018F000EA01E901E801E7016708F7006808F80074
:101900006908F9006A08FA007A08D2007908D1005B
:101910007808D0007708CF0052088316AB008312F6
:1019200051088316AA00831250088316A900831257
:101930004F088316A800AF018030AE003B30AD00E9
:101940008A30AC00831277207A08DE007908DD0047
:101950007808DC007708DB008316AB01AA01A90137
:101960007F30A800831239088316AF00831238082D
:101970008316AE00831237088316AD008312360833
:101980008316AC00831277208310A7018B1BA71747
:101990008B135E088316BE0083125D088316BD009C
:1019A00083125C088316BC0083125B088316BB009D
:1019B0007A08C2007908C1007808C0007708BF0023
:1019C0008A118312F1258A15A71B8B178316AB0189
:1019D000AA01A9017F30A8007A08AF007908AE00FB
:1019E0007808AD007708AC00831277207A08DA0017
:1019F0007908D9007808D8007708D7008314A701A0
:101A00008B1BA7178B135A088316BE008312590825
:101A10008316BD00831258088316BC008312570832
:101A20008316BB003330C2009330C1000830C000C1
:101A30008730BF008A118312F1258A15A71B8B17E7
:101A40007A08DA007908D9007808D8007708D70032
:101A50005708F7005808F8005908F9005A08FA0022
:101A60008A150A1671285408F801530203183B2DF1
:101A70005308F700472DF7010830D500D30DF70DB7
:101A8000540877020318F700F80DD50B3E2D080017
:101A90008314A7018B1BA7178B134A088316BE005C
:101AA000831249088316BD00831248088316BC00C0
:101AB000831247088316BB00C201C1017030C00009
:101AC0008230BF008A118312F1258A15A71B8B175C
:101AD0007A088316A3007908A2007808A100770885
:101AE000A0008A118312DE278A157808D3000630F9
:101AF000D40033257808CF008314A7018B1BA717C8
:101B00008B134A088316BE00831249088316BD0052
:101B1000831248088316BC00831247088316BB0053
:101B2000C201C1017030C0008230BF008A1183122F
:101B3000F1258A15A71B8B177A088316A30079084D
:101B4000A2007808A1007708A0008A118312DE277E
:101B50008A157808D3000630D40033257708D000E2
:101B60004E088316AB0083124D088316AA00831219
:101B70004C088316A90083124B088316A800F03086
:101B8000AF00A730AE005A30AD008130AC008312F8
:101B900000207A08D5007908D4007808D3007708A7
:101BA000D2008310A7018B1BA7178B137A0883160B
:101BB000BE00831279088316BD008312780883164D
:101BC000BC00831277088316BB00C201C101243018
:101BD000C0008330BF008A118312F1258A15A71B2C
:101BE0008B177A088316A3007908A2007808A10051
:101BF0007708A0008A118312DE278A157808D100A1
:101C000001304F07BC005008BD005108BE003C30F9
:101C1000F8000030F9008A150A168C28F701F8013F
:101C20008316220803102318F707F70CF80CA318E3
:101C3000F707F70CF80C2319F707F70CF80CA319A2
:101C4000F707F70CF80C231AF707F70CF80CA31A90
:101C5000F707F70CF80C231BF707F70CF80CA31B7E
:101C6000F707F70CF80C8312080083183A2E5C3043
:101C700084008313F701F801F901FA01DC01DD01A9
:101C8000DE01DF015B085A04590458040319782E59
:101C90002030E0000310D40DD50DD60DD70DDC0D8E
:101CA000DD0DDE0DDF0D5B085F02031D612E5A089E
:101CB0005E02031D612E59085D02031D612E580846
:101CC0005C02031C722E5808DC025908031C590FD1
:101CD000DD025A08031C5A0FDE025B08031C5B0F6F
:101CE000DF020314F70DF80DF90DFA0DE00B4A2E83
:101CF0005C088000840A5D088000840A5E08800019
:101D0000840A5F08800008000408CC004B08CE005D
:101D10000319AB2E4A088316AB00831249088316B9
:101D2000AA00831248088316A90083124708831665
:101D3000A800AF01AE012030AD008230AC008312AC
:101D400000207A08CA007908C9007808C800770816
:101D5000C700CE0B8A2E4A08D7004908D60048088B
:101D6000D5004708D4005408B63CD400FA01550801
:101D7000D800D5170310D50CD60CD70CFA0CF90CDB
:101D8000F80CF70CD40BBA2ED81FD12EF709F8098E
:101D9000F909FA09F70A0319F80A0319F90A0319E4
:101DA000FA0A7A08CA007908C9007808C8007708D2
:101DB000C700CA1FE82ECC03CC16C709C809C90939
:101DC000CA09C70A0319C80A0319C90A0319CA0AA2
:101DD0003B30D3009A30D200CA30D100D0010A3053
:101DE000CE004B080319CC0A8314473084008313B8
:101DF0004A08D7004908D6004808D5004708D4004B
:101E00005308DB005208DA005108D9005008D80006
:101E100035267808F708031D202F4B0A4E020319B8
:101E2000202F4C080319222F0F394E0203191A2FA5
:101E30000318562FCC1B562F4C1B222F2030512F0E
:101E40002030CC05CC1E312FCC124B08031DCC0307
:101E50007708CC002D300C1E2B2F99004C08F70072
:101E6000CC014B084E02031D402F7708CC002E30CA
:101E70000C1E382F99004C08F7002030CC0500309C
:101E80003030CC1E512FCC124B08031DCC037708E9
:101E9000CC002D300C1E4A2F99004C08F700CC01C5
:101EA0003030F70777080C1E532F99008310530822
:101EB000D7005208D6005108D5005008D400DB01E5
:101EC000DA01D9010A30D80035267A08D30079081A
:101ED000D2007808D1007708D000CE0BF42E08008D
:101EE0000B08C8008B13831603178C170C14000003
:101EF00000000318A32F83120C087F390313C900B5
:101F000003170D080313CA0003170F080313CB00B0
:101F100049080C1E892F99004A0803178D000313E6
:101F20004B0803178F0083168C170C140000000059
:101F300083120313C70B9D2FA02F83160317A32F04
:101F4000C32F8316031783120C0D0E0D7F39031355
:101F5000C90003170D080313CA0003170F08031362
:101F6000CB0049080C1EB22F99004A0803178D00B8
:101F700003134B0803178F008D0A03198F0A0310F0
:101F80000313C70B732FC81B8B170800780847086B
:101F9000D3006430D40033257708C7007808303088
:101FA000031DD92FC81CE12FC819E12F481A203072
:101FB000DC2FC81148124814F80778080C1EDE2FD1
:101FC00099004708D3000A30D40033257708C700AA
:101FD00078083030031DF22FC819F72F481CF72F4F
:101FE000481A2030F80778080C1EF42F990030307A
:101FF000C70747080C1EFA2F99008A150A162829C8
:102000004A08013A03191428033A03198128013AAE
:102010000319EE28073A03195B29013A0319C82965
:10202000033A0319352AA22A4B088316A200293045
:10203000A3000A128A1583120E260A168A1178083E
:102040008316A000013083124C02831620070A1267
:1020500083122F200A16F800D5004B088316A20021
:102060002930A3000A128A1583120E260A168A1135
:102070004C0878070A122F200A16F800D6004B08E1
:10208000053C031D512801304C020A122C210A166E
:10209000F800D7004C080A122C210A16F800D800C4
:1020A000802801304B078316A100A2002930A3002D
:1020B0000A128A1583120E260A168A1178088316C8
:1020C000A000013083124C02831620070A128312EB
:1020D0002F200A16F800D70001304B078316A10005
:1020E000A2002930A3000A128A1583120E260A16AE
:1020F0008A114C0878070A122F200A16F800D80017
:10210000FC2A4B088316A2002930A3000A128A1564
:1021100083120E260A168A1178088316A000013051
:1021200083124C02831620070A1283122C210A16EE
:10213000F800D5004B088316A2002930A3000A122C
:102140008A1583120E260A168A114C0878070A127D
:102150002C210A16F800D6004B08053C031DBE28AA
:1021600001304C020A1229220A16F800D7004C0846
:102170000A1229220A16F800D800ED2801304B0770
:102180008316A100A2002930A3000A128A15831227
:102190000E260A168A1178088316A00001308312D1
:1021A0004C02831620070A1283122C210A16F8000B
:1021B000D70001304B078316A100A2002930A300ED
:1021C0000A128A1583120E260A168A114C087807FD
:1021D0000A122C210A16F800D800FC2A4B08831694
:1021E000A2002930A3000A128A1583120E260A16AD
:1021F0008A1178088316A000013083124C028316DE
:1022000020070A12831229220A16F800D5004B086B
:102210008316A2002930A3000A128A1583120E2603
:102220000A168A114C0878070A1229220A16F800A1
:10223000D6004B08053C031D2B2901304C020A1225
:1022400026230A16F800D7004C080A1226230A167D
:10225000F800D8005A2901304B078316A100A200CC
:102260002930A3000A128A1583120E260A168A1133
:1022700078088316A000013083124C0283162007D1
:102280000A12831229220A16F800D70001304B07E0
:102290008316A100A2002930A3000A128A15831216
:1022A0000E260A168A114C0878070A1229220A16E5
:1022B000F800D800FC2A4B088316A2002930A3009E
:1022C0000A128A1583120E260A168A1178088316B6
:1022D000A000013083124C02831620070A128312D9
:1022E00026230A16F800D5004B088316A2002930D1
:1022F000A3000A128A1583120E260A168A114C08A8
:1023000078070A1226230A16F800D6004B08053C67
:10231000031D982901304C020A1223240A16F800E2
:10232000D7004C080A1223240A16F800D800C7293F
:1023300001304B078316A100A2002930A3000A1226
:102340008A1583120E260A168A1178088316A000B1
:10235000013083124C02831620070A1283122623AF
:102360000A16F800D70001304B078316A100A2001F
:102370002930A3000A128A1583120E260A168A1122
:102380004C0878070A1226230A16F800D800FC2AFF
:102390004B088316A2002930A3000A128A15831263
:1023A0000E260A168A1178088316A00001308312BF
:1023B0004C02831620070A12831223240A16F800FF
:1023C000D5004B088316A2002930A3000A128A15F3
:1023D00083120E260A168A114C0878070A12232443
:1023E0000A16F800D6004B08053C031D052A0130EB
:1023F0004C020A1223240A16F800D7004C080A12CD
:1024000023240A16F800D800342A01304B0783161B
:10241000A100A2002930A3000A128A1583120E26F9
:102420000A168A1178088316A000013083124C0224
:10243000831620070A12831223240A16F800D700F5
:1024400001304B078316A100A2002930A3000A1215
:102450008A1583120E260A168A114C0878070A126A
:1024600023240A16F800D800FC2A4B088316A20081
:102470002930A3000A128A1583120E260A168A1121
:1024800078088316A000013083124C0283162007BF
:102490000A12831223240A16F800D5004B0883166B
:1024A000A2002930A3000A128A1583120E260A16EA
:1024B0008A114C0878070A1223240A16F800D6005D
:1024C0004B08053C031D722A01304C020A122025DC
:1024D0000A16F800D7004C080A1220250A16F80040
:1024E000D800A12A01304B078316A100A200293091
:1024F000A3000A128A1583120E260A168A1178087A
:102500008316A000013083124C02831620070A12A2
:10251000831223240A16F800D70001304B078316D4
:10252000A100A2002930A3000A128A1583120E26E8
:102530000A168A114C0878070A1223240A16F80092
:10254000D800FC2A4B088316A2002930A3000A12E7
:102550008A1583120E260A168A1178088316A0009F
:10256000013083124C02831620070A1283122025A1
:102570000A16F800D5004B088316A2002930A300E4
:102580000A128A1583120E260A168A114C08780739
:102590000A1220250A16F800D60001304B078316D0
:1025A000A100A2002930A3000A128A1583120E2668
:1025B0000A168A1178088316A000013083124C0293
:1025C000831620070A12831220250A16F800D70066
:1025D00001304B078316A100A2002930A3000A1284
:1025E0008A1583120E260A168A114C0878070A12D9
:1025F00020250A16F800D80054088316A300831279
:1026000053088316A200831252088316A100831276
:1026100051088316A0000A128312DE270A168316B9
:10262000A9017808A8000A1283129A270A167A08C4
:10263000E0007908DF007808DE007708DD00540844
:102640008316A300831253088316A2008312520834
:102650008316A100831251088316A0000A12831268
:10266000DE270A16013078078316A901A8000A128E
:1026700083129A270A167A08E4007908E30078089A
:10268000E2007708E10050088316A30083124F0888
:102690008316A20083124E088316A10083124D08F0
:1026A0008316A0000A128312DE270A168316A901D8
:1026B0007808A8000A1283129A270A167A08E800F6
:1026C0007908E7007808E6007708E50050088316E7
:1026D000A30083124F088316A20083124E088316AC
:1026E000A10083124D088316A0000A128312DE2770
:1026F0000A16013078078316A901A8000A1283126E
:102700009A270A167A08EC007908EB007808EA00A4
:102710007708E9008314A7018B1BA7178B136408A4
:102720008316BE00831263088316BD0083126208FD
:102730008316BC00831261088316BB008312540801
:102740008316C200831253088316C10083125208F5
:102750008316C000831251088316BF000A12831229
:10276000F1250A16A71B8B177A088316A300790890
:10277000A2007808A1007708A00083148312A701A3
:102780008B1BA7178B1364088316BE008312630884
:102790008316BD00831262088316BC008312610891
:1027A0008316BB00831260088316C20083125F0881
:1027B0008316C10083125E088316C00083125D0871
:1027C0008316BF000A128312F1250A16A71B8B1766
:1027D00083162308AB002208AA002108A9002008BC
:1027E000A8007A08AF007908AE007808AD00770835
:1027F000AC000A128A15831277200A168A117A0809
:102800008316A3007908A2007808A1007708A00029
:10281000A901831255088316A8000A1283129A2769
:102820000A1683162308AB002208AA002108A90073
:102830002008A8007A08AF007908AE007808AD003B
:102840007708AC000A128A15831200200A168A1132
:102850007A088316A3007908A2007808A1007708F7
:10286000A00083148312A7018B1BA7178B13540896
:102870008316BE00831253088316BD0083125208CC
:102880008316BC00831251088316BB0083126008B4
:102890008316C20083125F088316C10083125E088C
:1028A0008316C00083125D088316BF000A128312CC
:1028B000F1250A16A71B8B177A088316A70079083B
:1028C000A6007808A5007708A40083148312A70146
:1028D0008B1BA7178B1364088316BE008312630833
:1028E0008316BD00831262088316BC008312610840
:1028F0008316BB00831260088316C20083125F0830
:102900008316C10083125E088316C00083125D081F
:102910008316BF000A128312F1250A16A71B8B1714
:1029200083162708AB002608AA002508A90024085A
:10293000A8007A08AF007908AE007808AD007708E3
:10294000AC000A128A15831277200A168A117A08B7
:102950008316A7007908A6007808A5007708A400C8
:10296000A901831256088316A8000A1283129A2717
:102970000A1683162708AB002608AA002508A90016
:102980002408A8007A08AF007908AE007808AD00E6
:102990007708AC000A128A15831200200A168A11E1
:1029A0008310A7018B1BA7178B1383162308BE0068
:1029B0002208BD002108BC002008BB007A08C20024
:1029C0007908C1007808C0007708BF000A12831296
:1029D000F1250A16A71B8B177A08F0007908EF007B
:1029E0007808EE007708ED008314A7018B1BA7176A
:1029F0008B1364088316BE00831263088316BD0020
:102A0000831262088316BC00831261088316BB0020
:102A1000831254088316C200831253088316C10020
:102A2000831252088316C000831251088316BF0018
:102A30000A128312F1250A16A71B8B177A08831630
:102A4000A3007908A2007808A1007708A0008314E9
:102A50008312A7018B1BA7178B1364088316BE0074
:102A6000831263088316BD00831262088316BC00BC
:102A7000831261088316BB00831260088316C200AC
:102A800083125F088316C10083125E088316C0009C
:102A900083125D088316BF000A128312F1250A16FD
:102AA000A71B8B1783162308AB002208AA00210856
:102AB000A9002008A8007A08AF007908AE007808BD
:102AC000AD007708AC000A128A15831277200A1627
:102AD0008A117A088316A3007908A2007808A10059
:102AE0007708A000A901831257088316A8000A12CC
:102AF00083129A270A1683162308AB002208AA001D
:102B00002108A9002008A8007A08AF007908AE00C3
:102B10007808AD007708AC000A128A1583120020ED
:102B20000A168A117A088316A3007908A200780889
:102B3000A1007708A00083148312A7018B1BA7179D
:102B40008B1354088316BE00831253088316BD00EE
:102B5000831252088316BC00831251088316BB00EF
:102B6000831260088316C20083125F088316C100B7
:102B700083125E088316C00083125D088316BF00AF
:102B80000A128312F1250A16A71B8B177A088316DF
:102B9000A7007908A6007808A5007708A400831488
:102BA0008312A7018B1BA7178B1364088316BE0023
:102BB000831263088316BD00831262088316BC006B
:102BC000831261088316BB00831260088316C2005B
:102BD00083125F088316C10083125E088316C0004B
:102BE00083125D088316BF000A128312F1250A16AC
:102BF000A71B8B1783162708AB002608AA002508F9
:102C0000A9002408A8007A08AF007908AE00780867
:102C1000AD007708AC000A128A15831277200A16D5
:102C20008A117A088316A7007908A6007808A500FB
:102C30007708A400A901831258088316A8000A1275
:102C400083129A270A1683162708AB002608AA00C3
:102C50002508A9002408A8007A08AF007908AE006A
:102C60007808AD007708AC000A128A15831200209C
:102C70000A168A118310A7018B1BA7178B138316C3
:102C80002308BE002208BD002108BC002008BB00AC
:102C90007A08C2007908C1007808C0007708BF0030
:102CA0000A128312F1250A16A71B8B177A08F40063
:102CB0007908F3007808F2007708F1008314A7017F
:102CC0008B1BA7178B136C088316BE0083126B082F
:102CD0008316BD0083126A088316BC00831269083C
:102CE0008316BB00831250088316C20083124F085C
:102CF0008316C10083124E088316C00083124D084C
:102D00008316BF000A128312F1250A16A71B8B1720
:102D10007A088316A3007908A2007808A100770832
:102D2000A00083148312A7018B1BA7178B136C08B9
:102D30008316BE0083126B088316BD0083126A08D7
:102D40008316BC00831269088316BB0083126808CF
:102D50008316C200831267088316C10083126608B7
:102D60008316C000831265088316BF000A128312FF
:102D7000F1250A16A71B8B1783162308AB00220820
:102D8000AA002108A9002008A8007A08AF00790845
:102D9000AE007808AD007708AC000A128A158312DD
:102DA00077200A168A117A088316A3007908A200F0
:102DB0007808A1007708A0002308AB002208AA0029
:102DC0002108A9002008A8007008AF0083126F082E
:102DD0008316AE0083126E088316AD0083126D0851
:102DE0008316AC000A128A15831200200A168A1173
:102DF0007A088316A3007908A2007808A100770852
:102E0000A00083148312A7018B1BA7178B135008F4
:102E10008316BE0083124F088316BD0083124E082E
:102E20008316BC0083124D088316BB00831268080A
:102E30008316C200831267088316C10083126608D6
:102E40008316C000831265088316BF000A1283121E
:102E5000F1250A16A71B8B177A088316A700790895
:102E6000A6007808A5007708A40083148312A701A0
:102E70008B1BA7178B136C088316BE0083126B087D
:102E80008316BD0083126A088316BC00831269088A
:102E90008316BB00831268088316C200831267087A
:102EA0008316C100831266088316C000831265086A
:102EB0008316BF000A128312F1250A16A71B8B176F
:102EC00083162708AB002608AA002508A9002408B5
:102ED000A8007A08AF007908AE007808AD0077083E
:102EE000AC000A128A15831277200A168A117A0812
:102EF0008316A7007908A6007808A5007708A40023
:102F00002708AB002608AA002508A9002408A80065
:102F10007408AF007308AE007208AD007108AC0011
:102F20000A128A15831200200A168A118310A7013B
:102F30008B1BA7178B1383162308BE002208BD0026
:102F40002108BC002008BB007A08C2007908C10033
:102F50007808C0007708BF000A128312F1250A160C
:102F6000A71B8B177A08DC007908DB007808DA00E9
:102F70007708D9005908F7005A08F8005B08F900EB
:0A2F80005C08FA008A150A16C02842
:10300000813083169900A630980090308312980082
:10301000AB01AA01A901A801AF01AE01AD01AC014C
:10302000B301B201B101B001B501B4013330B9004F
:103030001330B8001630B7008730B600FF30BF003D
:1030400083161F149F141F159F1107309C008313B4
:103050001F3083058312BC01BD01BE018316091216
:10306000831290010030F800920000308316920025
:1030700083123F113F0883168700831207110C301B
:103080009700F0309D0583160108C039073881008C
:103090000030F800063883129200FF308316920049
:1030A000CF30831281008B16C0308B040A30C700EA
:1030B0000A128A1186270A168A1583161F109F1076
:1030C0001F159F111F1383121F139F1783169F171E
:1030D00083121F140030831687008312BF000A1268
:1030E00043290A167A08AB007908AA007808A900D3
:1030F0007708A8002B08CA002A08C9002908C800B8
:103100002808C7003308CE003208CD003108CC00B3
:103110003008CB000A12482D0A167908C100780839
:10312000C000400884008313411883170008C700BB
:103130000130400784008313411883170008C8003A
:103140000230400784008313411883170008C90028
:103150004708CA004808CB004908CC002B08D0001B
:103160002A08CF002908CE002808CD003308D40053
:103170003208D3003108D2003008D1008A1100286B
:103180008A157A08C5007908C4007808C300770852
:10319000C20045088316A300831244088316A200C8
:1031A000831243088316A100831242088316A000ED
:1031B0000A128A118312DE270A168A157808C600B9
:1031C00054300C1EE12899003A300C1EE528990075
:1031D00020300C1EE9289900893084002B08CA0091
:1031E0002A08C9002908C8002808C7000230CB00F7
:1031F0000A1284260A167C3003178D0007308F00D0
:10320000031406300313C7000A1270270A16893008
:1032100084003308CA003208C9003108C8003008E9
:10322000C7000230CB000A1284260A16803003172A
:103230008D0007308F00031406300313C7000A12F5
:1032400070270A164608C7001B30C8000A12C62F8E
:103250000A160A300C1E2A29990046089500643087
:10326000C7000A128A1186270A168A156F2863007A
:02400E003A3F37
:00000001FF
;PIC16F877A
;CRC=D82A  CREATED="25-май-22 05:25"
