:1000000011308A00582900000A108A100A1182074C
:1000100028340C34013406340A108A100A11133EB5
:1000200003188A0A82009634963496349634403403
:10003000B7342D34A1340A347134D43429347934AA
:10004000CA3412345F34AE34F3343D348634C634AB
:10005000DE34F6340F34283443345D34793492344A
:100060008934703454343B3420340734EE34D6347D
:10007000C634C634C634C634923492349234923480
:10008000D43499345934F0347F341334A3342B34BA
:10009000AA340C346F34D4343D34A3341034AD342A
:1000A0005234AD3410347C34F5347A341034B734EF
:1000B000783435347D34DC344B34CC345634EE343F
:1000C0008D345234523452345234A934A934A934C0
:1000D000A934D0347C34AD347F341F34CB34733402
:1000E0001534AE3422349B341434913412349A349F
:1000F0002C34C6342C349A34123495342434C3341A
:1001000070343234EF3433348D34F2346934E834BB
:1001100075340934C634C634C634C6348834883499
:1001200088348834D6349134AB345E34E03431349E
:10013000C13474341E34A1342734A7342C34DC3455
:10014000DC34DC34DC34DC34DC34DC343234BA34FB
:100150005134F334A7346A34BB341E348A34063441
:10016000DC34DC34DC34DC34DC34DC34DC342934C2
:10017000293429342934B534B234FA34C03428341B
:10018000483431342E34A4342C3418342E343D34D5
:100190004534453445344534453445344534453497
:1001A0004534453479341F34E734453445344534D7
:1001B0004534453445344534453445344534453477
:1001C0006C346C346C346C343B348034FB34E63443
:1001D0006A349F34D83438347434983433344F34D8
:1001E00063346D346D346D346D346D346D346D3411
:1001F0006D346D346D342A34C034E63449346D3492
:100200006D346D346D346D346D346D346D346D34E6
:100210006D340A148A100A11103E03188A0A8200EB
:100220005B345B345B345B3472340634B934CF34C2
:10023000B134853418347F34C034EA34FF340734A1
:1002400001349634963496349634963496349634F3
:10025000963478344D341834D534ED342A345C3443
:100260008434963496349634963496349634963450
:100270009634F834F834F834F834BA34CB34EC34F7
:100280008C34B234863418347F34C134EB340034C7
:10029000083407340334FB34E534D334D334D33453
:1002A000D634DA34DF34E334E834EC34EA34E53499
:1002B000E134DC34D834D434D334D334D334D334E9
:1002C000D334D334C634C634C634C6346134A334CC
:1002D000EC348C34B234863418347F34C134EB348B
:1002E0000034083407340334FC34E934CC34CF34DC
:1002F000D234D634DA34DF34E334E834EC34EA345C
:10030000E534E134DC34D834D434D134CE34CC3494
:10031000CC34CC34CC34C634C634C634C634613460
:10032000A334EC348C34B234863418347F34C13482
:10033000EB340034083407340334FC34E934CC346F
:10034000CF34D234D634DA34DF34E334E834EC3426
:10035000EA34E534E134DC34D834D434D134CE3426
:10036000CC34CC34CC34CC34C634C634C634C634A5
:100370006134A334EC348C34B234863418347F3492
:10038000C134EB340034083407340334FC34E9342A
:10039000CC34CF34D234D634DA34DF34E334E834F6
:1003A000EC34EA34E534E134DC34D834D434D134B8
:1003B000CE34CC34CC34CC34CC34523452345234A9
:1003C00052348B347634E33427343E343F3425348E
:1003D0000234D1349D3463342A34F334C134943438
:1003E000613427344F347F34B934FF345234B53458
:1003F0002D34BE348A34023491343434E634A43497
:100400004A34D33493349334933493340A108A1493
:100410000A118207C634C634C634C634C5343534EE
:100420000B345F3495342234A8343434BD344E3424
:10043000E2347D342034CE3485343834E734223409
:100440006834BC34213497342434CA3491344A3467
:100450008F34F2346D34DF343D34B0343A34FA340E
:10046000FA34FA34FA344734473447344734613481
:1004700081346B342E34873494345D34B83417347B
:100480008334F5347434FD3493343A3424340C34E6
:100490000C340C346434D6345B34F734AF348734E2
:1004A0003A346E34AE34F5344D34B1344E342934EC
:1004B0001534153415341534E934E934E934E934A4
:1004C000A4344E34853456341434DE346C34CC3495
:1004D0005D34B0340C347634FC34E134D234C1347D
:1004E000AB34AB34AB34AB34AB342034C1347C34B8
:1004F000563407342E346834B43454343634193412
:100500000134F334F334F334F3340D340D340D3457
:100510000D348934E334D9347634BA34B634DB3428
:100520008234D034553494346634443431342B34EA
:10053000213412341234123412341234123412347C
:10054000E934B734C934FE3414340D340334F4348C
:10055000E634D934D234D234D234D234E934E93422
:10056000E934E9343A345D3426349C34D734FE34EB
:100570000A340134FB340A34FA34D6347B3474340C
:100580007B347E347B347B347B347B347B34D73494
:10059000FF341134073469347B347C346C34DF34F9
:1005A000E034E034DF34DE34DE34DE34DE349F34F5
:1005B0009F349F349F34D434D33487340F34683419
:1005C0009B34B334B634A8349234803479345D34F7
:1005D0003734F7340C341C341C341C348534D63492
:1005E0001A344B3465346434D334F734073402346A
:1005F000EA34C23440344C3452345234523400342D
:100600000A148A140A1182074C344C344C344C348A
:100610006E346C343534CD34343475349B34AC346E
:10062000AC34A734A1349E34A03498348634573483
:100630000E348434F5345D34BC341134553485348F
:100640009C341C344E34763497349A34783446349F
:1006500001347434743474347434FD34FD34FD3432
:10066000FD3433344A342834D23449349834CD34C8
:10067000EC34FC340A3419342C344B347B34B93424
:10068000AB34813407348B340A348534FA3464341F
:10069000C0340C34A534E134143446347634A834F0
:1006A000B1346434CE34CE34CE34CE34CC34CC34C5
:1006B000CC34CC34143442343334EC347134CD344F
:1006C0000F343B345B347C349E34C93401344E34B3
:1006D000B5343E34F33495343B34E434903441340F
:1006E000F334A93462341F3459349134CF34113483
:1006F0005F34B7341334FB34FB34FB34FB34CC3479
:10070000CC34CC34CC34143442343334EC347134FF
:10071000CD340F343B345B347C349E34C9340134E3
:100720004E34B5343E34F33495343B34E4349034B1
:100730004134F334A93462341F3459349134CF3402
:1007400011345F34B7341334FB34FB34FB34FB34E3
:10075000CC34CC34CC34CC34143442343334EC3454
:100760007134CD340F343B345B347C349E34C93423
:1007700001344E34B5343E34F33495343B34E434F0
:1007800090344134F334A93462341F3459349134F1
:10079000CF3411345F34B7341334FB34FB34FB34BF
:1007A000FB34CC34CC34CC34CC34143442343334F5
:1007B000EC347134CD340F343B345B347C349E34B0
:1007C000C93401344E34B5343E34F33495343B34BB
:1007D000E43490344134F334A93462341F3459344E
:1007E0009134CF3411345F34B7341334FB34FB34D9
:1007F000FB34FB3400000A108A100A15023E03186D
:100800008A0A8200CC34CC34CC34CC341434423414
:100810003334EC347134CD340F343B345B347C34BA
:100820009E34C93401344E34B5343E34F3349534F7
:100830003B34E43490344134F334A93462341F340B
:1008400059349134CF3411345F34B7341334FB341A
:10085000FB34FB34FB34CC34CC34CC34CC341434C3
:1008600042343334EC347134CD340F343B345B34A4
:100870007C349E34C93401344E34B5343E34F334C0
:1008800095343B34E43490344134F334A934623445
:100890001F3459349134CF3411345F34B7341334A6
:1008A000FB34FB34FB34FB34CC34CC34CC34CC348C
:1008B000143442343334EC347134CD340F343B349B
:1008C0005B347C349E34C93401344E34B5343E3408
:1008D000F33495343B34E43490344134F334A93464
:1008E00062341F3459349134CF3411345F34B73407
:1008F0001334FB34FB34FB34FB34CC34CC34CC34F5
:10090000CC34143442343334EC347134CD340F34B9
:100910003B345B347C349E34C93401344E34B534BA
:100920003E34F33495343B34E43490344134F3347E
:10093000A93462341F3459349134CF3411345F34C4
:10094000B7341334FB34FB34FB34FB34CC34CC34B9
:10095000CC34CC34143442343334EC347134CD34AC
:100960000F343B345B347C349E34C93401344E3410
:10097000B5343E34F33495343B34E434903441346C
:10098000F334A93462341F3459349134CF341134E0
:100990005F34B7341334FB34FB34FB34FB34CC34D6
:1009A000CC34CC34CC34143442343334EC3471345D
:1009B000CD340F343B345B347C349E34C934013441
:1009C0004E34B5343E34F33495343B34E43490340F
:1009D0004134F334A93462341F3459349134CF3460
:1009E00011345F34B7341334FB34FB34FB34FB3441
:1009F0000000000000000A148A100A15023E0318C5
:100A00008A0A8200CC34CC34CC34CC341434423412
:100A10003334EC347134CD340F343B345B347C34B8
:100A20009E34C93401344E34B5343E34F3349534F5
:100A30003B34E43490344134F334A93462341F3409
:100A400059349134CF3411345F34B7341334FB3418
:100A5000FB34FB34FB34CC34CC34CC34CC341434C1
:100A600042343334EC347134CD340F343B345B34A2
:100A70007C349E34C93401344E34B5343E34F334BE
:100A800095343B34E43490344134F334A934623443
:100A90001F3459349134CF3411345F34B7341334A4
:100AA000FB34FB34FB34FB34CC34CC34CC34CC348A
:100AB000143442343334EC347134CD340F343B3499
:100AC0005B347C349E34C93401344E34B5343E3406
:100AD000F33495343B34E43490344134F334A93462
:100AE00062341F3459349134CF3411345F34B73405
:100AF0001334FB34FB34FB34FB34CC34CC34CC34F3
:100B0000CC34143442343334EC347134CD340F34B7
:100B10003B345B347C349E34C93401344E34B534B8
:100B20003E34F33495343B34E43490344134F3347C
:100B3000A93462341F3459349134CF3411345F34C2
:100B4000B7341334FB34FB34FB34FB34CC34CC34B7
:100B5000CC34CC34143442343334EC347134CD34AA
:100B60000F343B345B347C349E34C93401344E340E
:100B7000B5343E34F33495343B34E434903441346A
:100B8000F334A93462341F3459349134CF341134DE
:100B90005F34B7341334FB34FB34FB34FB340C2A9E
:100BA000BA1266166C1D25338A37753ABA1266007A
:100BB00048308400831300080319EB2D0630F80039
:100BC000F701F70BE12DF80BE02D7B30F700F70B69
:100BD000E72D800BDE2D08004F0EF039F7000F30A7
:100BE000080577048800000008140230F700F70BAE
:100BF000F72DFA2D0000081008000808F700080E6D
:100C00000F39F800080083160810881008118312A5
:100C100088100F3083160805F038880083120815F5
:100C2000000008140000FD257808CF00081000001F
:100C300008141A2E1B2E0000FD257808CE0008107F
:100C40000F3083160805880083124F0EF700F0302E
:100C5000F70577084E04F8007808CE00CE1B092E61
:100C60004C1C88104C188814000008110000081053
:100C70004D0ECE000F30CE054E08CF00EC254D08AE
:100C80000F39CE00CF00EC2508000F308316080581
:100C900088000810881008118312881008110810A5
:100CA0000F30C800D8250130BA003A08033C031CB5
:100CB000612E0330CF00EC250530C800D825BA0AD4
:100CC000552E0230CF00EC250530C800D825BA01DA
:100CD0003A08033C031C752E3A080420BB00CC01E3
:100CE0003B08CD000326BA0A682E8A110A167A2913
:100CF0008E30F7007108F8007008F900FA01F80862
:100D0000031D8C2E7908F800F9010830F702F80865
:100D1000031D8C2EF701942E0310F81B932EF90D52
:100D2000F80DF7038C2EF813080070080319142F20
:100D30008316A0007B08031D9F2E8312142FA0078B
:100D40000318AD2E7F30A0020318A82E8312142F93
:100D5000031DAC2E8312142FB32E8130A007031C69
:100D6000B32E8312142F2008F700F801F901FA01BD
:100D70007108A400A4177208A3007308A200183019
:100D8000A000A101221CDC2E7E08FA07031CCE2E37
:100D9000F90A031DCE2EF80A0319A1177D08F907D9
:100DA000031CD52EF80A0319A1177C08F200F217CC
:100DB0007208F8070318A117A10DF80CF90CFA0C2A
:100DC000A40CA30CA20C0310A00BC12E0130F7073A
:100DD000031CEC2E8312142FF81BF62EA40DFA0D13
:100DE000F90DF80DF70BF62E8312142FA41F092FFF
:100DF000FA0A031D092FF90A031D092FF80A031D1A
:100E0000092FF80CF90CFA0CF70A031D092F8312AD
:100E1000142F7108A1007C08A106A11F112FF8173B
:100E2000192FF813192F8312F701F801F901FA01AC
:100E30008316831208008E30F7006808F7026908ED
:100E4000F9006A08F800F917F7080319322F0310A0
:100E5000F908031D2E2FF8080319322FF90CF80C8E
:100E6000F70B272FE91F392FF809F909F80A031999
:100E7000F90A08004708F80146020318422F4608FD
:100E8000F7004E2FF7010830C800C60DF70D4708D0
:100E900077020318F700F80DC80B452F08008314DC
:100EA0003D08F3003C08F2003B08F1003A08F0006E
:100EB000FE01FD012030FC008430FB008A1500207B
:100EC0008A117A08EB007908EA007808E9007708C7
:100ED000E8001B277808C6000630C7003A277808C4
:100EE000C20083143D08F3003C08F2003B08F10007
:100EF0003A08F000FE01FD012030FC008430FB00C8
:100F00008A1500208A117A08EB007908EA0078082F
:100F1000E9007708E8001B277808C6000630C700FC
:100F20003A277708C30083144108F3004008F20011
:100F30003F08F1003E08F000FE01FD012030FC00FA
:100F40008330FB008A1500208A117A08EB007908AB
:100F5000EA007808E9007708E8001B2701307807E5
:100F6000C40001304207AC004308AD004408AE00A5
:100F70002C30F8000030F9008A110A166F2AF701A8
:100F8000F8016A0803106B18F707F70CF80CEB1858
:100F9000F707F70CF80C6B19F707F70CF80CEB19BF
:100FA000F707F70CF80C6B1AF707F70CF80CEB1AAD
:100FB000F707F70CF80C6B1BF707F70CF80CEB1B9B
:100FC000F707F70CF80C0800490BE72FEA2F403021
:100FD000CA00EB2FCA0101304802CA074A0880380C
:0C0FE000CB00CC014B08CD00032608001C
:1010000080308318FC068316A201A3017108A10099
:101010007C08A10670080319F128A000F7007B08DE
:101020000319FA28A00203199628031C54287C08E7
:10103000A600A6177D08A5007E08A400A301031042
:10104000A60CA50CA40CA30CA00B1E28A11F2B28DA
:1010500022140E29221020102216733084008313CC
:1010600023292212A11B3E28201C4928A60CA50CCE
:10107000A40CA30CF70A031909294928A61B4C281C
:101080000310A30DA40DA50DA60DF703031909293F
:101090003E282217B62822137108A100A11F52284A
:1010A000A6170229A61302297B08A000F7007008E2
:1010B000A0027108A600A6177208A5007308A40074
:1010C000A3010310A60CA50CA40CA30CA00B602874
:1010D000A11F6D28A2140E29A2102010A2167E3086
:1010E000840083132329A212A11B8028201C8B2893
:1010F000A60CA50CA40CA30CF70A031909298B282C
:10110000A61B8E280310A30DA40DA50DA60DF70395
:10111000031909298028A217B628A2137C08A10068
:10112000A11F9428A6170229A61302297C08A6004D
:10113000A6177D08A5007E08A400A11FA328A6135A
:1011400022150E292211A30120107330840083136D
:101150002329A11BCC287108A100201CB628A60CAD
:10116000A50CA40CA30CF70A03190929A31FC7286F
:10117000A40A031DC728A50A031DC728A60A031D24
:10118000C728A60CA50CA40CF70A03190929221BD1
:101190004B28A21B8D28EB288030A606A61FD4283A
:1011A0000E297C08A100E1287108A100A608031DF2
:1011B000E128A508031DE128A408031DE128F70183
:1011C0000229A61BEB280310A30DA40DA50DA60D47
:1011D000F70BE1280929A11FEF28A6170229A6135A
:1011E00002297B08F7007C08A6007D08A5007E0880
:1011F000A40002297008F7007108A6007208A50073
:101200007308A4002608F8002508F9002408FA004D
:101210004129F701F801F901FA014129A301A409C3
:10122000A509A609A309A30A031D1C29A40A031DD5
:101230001C29A50A0319A60A22182A28A2186C2814
:101240002219A228D1280008A407031C2D29A50AC9
:10125000031D2D29A60A0319201484030008A507DD
:10126000031C3529A60A0319201484030008801FD3
:10127000803AA60703182014221A3128A21A7328CC
:10128000A9288312080070080319152A8316A400E0
:101290007B08031D4D298312152AA402031C57291C
:1012A0007F30A407031C56298312152A6129813037
:1012B000A40203185D298312152A031D61298312D4
:1012C000152A2408F700F801F901FA01A3017108B1
:1012D000A200A2177208A1007308A0001930A40090
:1012E0007E08A002031884290130A1020318842972
:1012F000A20203188429A30203188429A30AA20ABC
:10130000A10A7E08A007B6297D08A10203189F291B
:101310000130A20203189F29A30203189F29A30AE0
:10132000A20A7D08A1077E08A007031CB629A10A0E
:10133000031DB629A20A031DB629A30AB6297C08F3
:101340008038A2020318B5290130A3020318B52979
:10135000A30A7C088038A2077D08A107031C9329F3
:10136000A20A031D9329A30A93297A14A40BB9296D
:10137000C4290310A00DA10DA20DA30D0310FA0D99
:10138000F90DF80DA50D7029251CCC290310F80CBA
:10139000F90CFA0CA50CD029F70BD0298312152AC9
:1013A000A51BF9290310A00DA10DA20DA30D7E0808
:1013B000A0020318E5290130A1020318E529A202C1
:1013C0000318E529A302031C0A2A7D08A1020318B9
:1013D000F0290130A2020318F029A302031C0A2AF3
:1013E0007C088038A2020318F9290130A302031CEB
:1013F0000A2AFA0A031D0A2AF90A031D0A2AF80A08
:10140000031D0A2AF70A031D072A8312152AF80C5E
:10141000F90CFA0C7108A4007C08A406A41F122A77
:10142000F8171A2AF8131A2A8312F701F801F9019A
:10143000FA018316831208003D08013A0319302A85
:10144000033A0319852A013A0319DA2A073A0319DC
:101450002F2B013A0319842B033A0319D92B2E2C75
:101460003E08EA002930EB008A11BF278A15780868
:10147000E80001303F0278078A110C208A15F80035
:10148000C8003E08EA002930EB008A11BF278A1500
:101490003F0878078A110C208A15F800C9003E0819
:1014A000053C031D612A01303F028A1109218A157A
:1014B000F800CA003F088A1109218A15F800CB00FC
:1014C000842A01303E07E900EA002930EB008A1146
:1014D000BF278A157808E80001303F0278078A1193
:1014E0000C208A15F800CA0001303E07E900EA0026
:1014F0002930EB008A11BF278A153F0878078A1127
:101500000C208A15F800CB00702C3E08EA00293028
:10151000EB008A11BF278A157808E80001303F02E6
:1015200078078A1109218A15F800C8003E08EA00E8
:101530002930EB008A11BF278A153F0878078A11E6
:1015400009218A15F800C9003E08053C031DB62A8A
:1015500001303F028A1106228A15F800CA003F08AE
:101560008A1106228A15F800CB00D92A01303E07DD
:10157000E900EA002930EB008A11BF278A157808B4
:10158000E80001303F0278078A1109218A15F80026
:10159000CA0001303E07E900EA002930EB008A1159
:1015A000BF278A153F0878078A1109218A15F80094
:1015B000CB00702C3E08EA002930EB008A11BF27CF
:1015C0008A157808E80001303F0278078A11062260
:1015D0008A15F800C8003E08EA002930EB008A119D
:1015E000BF278A153F0878078A1106228A15F80056
:1015F000C9003E08053C031D0B2B01303F028A1138
:1016000000238A15F800CA003F088A1100238A15B2
:10161000F800CB002E2B01303E07E900EA0029300C
:10162000EB008A11BF278A157808E80001303F02D5
:1016300078078A1106228A15F800CA0001303E0791
:10164000E900EA002930EB008A11BF278A153F081C
:1016500078078A1106228A15F800CB00702C3E0804
:10166000EA002930EB008A11BF278A157808E800C4
:1016700001303F0278078A1100238A15F800C8005C
:101680003E08EA002930EB008A11BF278A153F087F
:1016900078078A1100238A15F800C9003E08053C26
:1016A000031D602B01303F028A11FA238A15F800CE
:1016B000CA003F088A11FA238A15F800CB00832B51
:1016C00001303E07E900EA002930EB008A11BF270C
:1016D0008A157808E80001303F0278078A11002354
:1016E0008A15F800CA0001303E07E900EA002930F7
:1016F000EB008A11BF278A153F0878078A1100235B
:101700008A15F800CB00702C3E08EA002930EB0067
:101710008A11BF278A157808E80001303F02780750
:101720008A11FA238A15F800C8003E08EA00293019
:10173000EB008A11BF278A153F0878078A11FA2320
:101740008A15F800C9003E08053C031DB52B013081
:101750003F028A11FA238A15F800CA003F088A114D
:10176000FA238A15F800CB00D82B01303E07E90098
:10177000EA002930EB008A11BF278A157808E800B3
:1017800001303F0278078A11FA238A15F800CA004F
:1017900001303E07E900EA002930EB008A11BF273B
:1017A0008A153F0878078A11FA238A15F800CB00BA
:1017B000702C3E08EA002930EB008A11BF278A15F9
:1017C0007808E80001303F0278078A11FA238A1569
:1017D000F800C8003E08EA002930EB008A11BF2754
:1017E0008A153F0878078A11FA238A15F800C9007C
:1017F0003E08053C031D0A2C01303F028A11F824E3
:101800008A15F800CA003F088A11F8248A15F800E2
:10181000CB002D2C01303E07E900EA002930EB0017
:101820008A11BF278A157808E80001303F0278073F
:101830008A11FA238A15F800CA0001303E07E90030
:10184000EA002930EB008A11BF278A153F08780784
:101850008A11FA238A15F800CB00702C3E08EA00A2
:101860002930EB008A11BF278A157808E80001307B
:101870003F0278078A11FA238A15F800C8003E084B
:10188000EA002930EB008A11BF278A153F08780744
:101890008A11FA238A15F800C90001303E07E900D1
:1018A000EA002930EB008A11BF278A157808E80082
:1018B00001303F0278078A11FA238A15F800CA001E
:1018C00001303E07E900EA002930EB008A11BF270A
:1018D0008A153F0878078A11FA238A15F800CB0089
:1018E0004708EB004608EA004508E9004408E8001C
:1018F0008A111B278A15F1017808F0008A117826D1
:101900008A157A08D3007908D2007808D1007708C0
:10191000D0004708EB004608EA004508E900440803
:10192000E8008A111B278A1501307807F101F000C1
:101930008A1178268A157A08D7007908D60078089F
:10194000D5007708D4004308EB004208EA004108BC
:10195000E9004008E8008A111B278A15F101780880
:10196000F0008A1178268A157A08DB007908DA00F7
:101970007808D9007708D8004308EB004208EA004D
:101980004108E9004008E8008A111B278A15013048
:101990007807F101F0008A1178268A157A08DF00AD
:1019A0007908DE007808DD007708DC00831457082A
:1019B000F3005608F2005508F1005408F0004708FB
:1019C000FE004608FD004508FC004408FB0000201E
:1019D0007A08EB007908EA007808E9007708E8005F
:1019E00083145708F3005608F2005508F100540814
:1019F000F0005308FE005208FD005108FC0050089A
:101A0000FB0000206B08F3006A08F2006908F1008F
:101A10006808F0007A08FE007908FD007808FC00EC
:101A20007708FB0043217A08EB007908EA00780880
:101A3000E9007708E800F1014808F0008A117826EB
:101A40008A156B08F3006A08F2006908F10068085B
:101A5000F0007A08FE007908FD007808FC0077089D
:101A6000FB008A1195268A157A08EB007908EA00AE
:101A70007808E9007708E80083144708F30046086F
:101A8000F2004508F1004408F0005308FE00520837
:101A9000FD005108FC005008FB0000207A08EF0010
:101AA0007908EE007808ED007708EC0083145708F9
:101AB000F3005608F2005508F1005408F0005308EE
:101AC000FE005208FD005108FC005008FB000020F9
:101AD0006F08F3006E08F2006D08F1006C08F0006A
:101AE0007A08FE007908FD007808FC007708FB0002
:101AF00043217A08EF007908EE007808ED007708B6
:101B0000EC00F1014908F0008A1178268A156F0867
:101B1000F3006E08F2006D08F1006C08F0007A081E
:101B2000FE007908FD007808FC007708FB008A11A8
:101B300095268A1583106B08F3006A08F20069087D
:101B4000F1006808F0007A08FE007908FD007808C6
:101B5000FC007708FB0000207A08E3007908E20027
:101B60007808E1007708E00083145708F30056086E
:101B7000F2005508F1005408F0004708FE0046083E
:101B8000FD004508FC004408FB0000207A08EB003B
:101B90007908EA007808E9007708E8008314570814
:101BA000F3005608F2005508F1005408F0005308FD
:101BB000FE005208FD005108FC005008FB00002008
:101BC0006B08F3006A08F2006908F1006808F00089
:101BD0007A08FE007908FD007808FC007708FB0011
:101BE00043217A08EB007908EA007808E9007708D1
:101BF000E800F1014A08F0008A1178268A156B087E
:101C0000F3006A08F2006908F1006808F0007A0839
:101C1000FE007908FD007808FC007708FB008A11B7
:101C200095268A157A08EB007908EA007808E90019
:101C30007708E80083144708F3004608F2004508D7
:101C4000F1004408F0005308FE005208FD0051085E
:101C5000FC005008FB0000207A08EF007908EE0035
:101C60007808ED007708EC0083145708F300560855
:101C7000F2005508F1005408F0005308FE00520825
:101C8000FD005108FC005008FB0000206F08F30025
:101C90006E08F2006D08F1006C08F0007A08FE0092
:101CA0007908FD007808FC007708FB0043217A08DA
:101CB000EF007908EE007808ED007708EC00F101FC
:101CC0004B08F0008A1178268A156F08F3006E0819
:101CD000F2006D08F1006C08F0007A08FE00790847
:101CE000FD007808FC007708FB008A1195268A150C
:101CF00083106B08F3006A08F2006908F1006808B5
:101D0000F0007A08FE007908FD007808FC007708EA
:101D1000FB0000207A08E7007908E6007808E50073
:101D20007708E40083145F08F3005E08F2005D08A2
:101D3000F1005C08F0004308FE004208FD00410885
:101D4000FC004008FB0000207A08EB007908EA005C
:101D50007808E9007708E80083145F08F3005E085C
:101D6000F2005D08F1005C08F0005B08FE005A0814
:101D7000FD005908FC005808FB0000206B08F30028
:101D80006A08F2006908F1006808F0007A08FE00AD
:101D90007908FD007808FC007708FB0043217A08E9
:101DA000EB007908EA007808E9007708E8007A088B
:101DB000F3007908F2007808F1007708F000630872
:101DC000FE006208FD006108FC006008FB008A114B
:101DD00095268A157A08EB007908EA007808E90068
:101DE0007708E80083144308F3004208F200410832
:101DF000F1004008F0005B08FE005A08FD00590899
:101E0000FC005808FB0000207A08EF007908EE007B
:101E10007808ED007708EC0083145F08F3005E0893
:101E2000F2005D08F1005C08F0005B08FE005A0853
:101E3000FD005908FC005808FB0000206F08F30063
:101E40006E08F2006D08F1006C08F0007A08FE00E0
:101E50007908FD007808FC007708FB0043217A0828
:101E6000EF007908EE007808ED007708EC007A08BA
:101E7000F3007908F2007808F1007708F0006708AD
:101E8000FE006608FD006508FC006408FB008A117E
:101E900095268A1583106B08F3006A08F20069081A
:101EA000F1006808F0007A08FE007908FD00780863
:101EB000FC007708FB0000207A08CF007908CE00EC
:101EC0007808CD007708CC004C08F7004D08F800E2
:101ED0004E08F9004F08FA008A110A16A42A47088A
:101EE000073A03197D2F0B3A0319842F063A031979
:101EF000902F023A0319982F9F2F0130C800C90074
:101F00008A11E4278A15A62FCC010130CD008A1151
:101F100003268A150230C8008A11D8258A15A62FF3
:101F20000130C8000230C9008A11E4278A15A62FA3
:101F3000CC011030CD008A1103268A15A62F01305E
:101F4000CC004708CD008A1103268A1508008318A3
:101F5000AC2F4F3084008313F701F801F901FA0127
:101F6000CF01D001D101D2014E084D044C044B04E5
:101F70000319EA2F2030D3000310C70DC80DC90D77
:101F8000CA0DCF0DD00DD10DD20D4E085202031D3A
:101F9000D32F4D085102031DD32F4C085002031DAF
:101FA000D32F4B084F02031CE42F4B08CF024C08E1
:101FB000031C4C0FD0024D08031C4D0FD1024E08DC
:101FC000031C4E0FD2020314F70DF80DF90DFA0D94
:101FD000D30BBC2F4F088000840A50088000840A6D
:0C1FE00051088000840A520880000800AC
:102000000408BF003E08C100031921283D08F30061
:102010003C08F2003B08F1003A08F000FE01FD0127
:102020002030FC008230FB000A1295260A167A083E
:10203000BD007908BC007808BB007708BA00C10B66
:1020400006283D08CA003C08C9003B08C8003A08F9
:10205000C7004708B63CC700FA014808CB00C817BC
:102060000310C80CC90CCA0CFA0CF90CF80CF70CCC
:10207000C70B3028CB1F4728F709F809F909FA09D7
:10208000F70A0319F80A0319F90A0319FA0A7A0870
:10209000BD007908BC007808BB007708BA00BD1FF6
:1020A0005E28BF03BF16BA09BB09BC09BD09BA0A3D
:1020B0000319BB0A0319BC0A0319BD0A3B30C60049
:1020C0009A30C500CA30C400C3010A30C1003E08BE
:1020D0000319BF0A83143A30840083133D08CA00F1
:1020E0003C08C9003B08C8003A08C7004608CE00B3
:1020F0004508CD004408CC004308CB000A128A15DD
:10210000A7270A168A117808F708031D9A283E0A9D
:10211000410203199A283F0803199C280F394102EC
:10212000031994280318DC28BF1BDC283F1B9C28BC
:102130002030D4282030BF05BF1EAE28BF123E0875
:10214000031DBF037708BF002D30C7000A128A1590
:102150006F270A168A113F08F700BF013E084102A7
:10216000031DC0287708BF002E30C7000A128A1549
:102170006F270A168A113F08F7002030BF0500308C
:102180003030BF1ED428BF123E08031DBF0377089E
:10219000BF002D30C7000A128A156F270A168A1150
:1021A0003F08F700BF013030F7077708C7000A1271
:1021B0008A156F270A168A1183104608CA00450837
:1021C000C9004408C8004308C700CE01CD01CC01B6
:1021D0000A30CB000A128A15A7270A168A117A0834
:1021E000C6007908C5007808C4007708C300C10B91
:1021F0006A2808000B08BB008B13831603178C1783
:102200000C14000000000318302983120C087F39D9
:102210000313BC0003170D080313BD0003170F08B9
:102220000313BE003C08C7000A128A156F270A165E
:102230008A113D0803178D0003133E0803178F0012
:1022400083168C170C140000000083120313BA0BC2
:102250002A292D298316031730295329831603179A
:1022600083120C0D0E0D7F390313BC0003170D08EC
:102270000313BD0003170F080313BE003C08C7007B
:102280000A128A156F270A168A113D0803178D0056
:1022900003133E0803178F008D0A03198F0A0310DA
:1022A0000313BA0BFD28BB1B8B178A110A16172BB9
:1022B000813083169900A6309800903083129800E0
:1022C000A301A201A101A001A701A601A501A401EA
:1022D000FF30AF0083161F149F141F159F11073086
:1022E0009C0083131F3083058312AC01AD01AE0146
:1022F0000A12452E0A168316091283129001003025
:10230000F800920000308316920083122F112F08DC
:1023100083168700831207110C309700F0309D055B
:102320000030F80006389200FF30831692000A3021
:102330008312C8000A12D8250A1683161F109F1090
:102340001F159F111F1383121F139F1783169F17AB
:1023500083121F140030831687008312AF000030F1
:10236000F8001F08C73978049F001030F700F70BFA
:10237000B72900001F151F19BB2983161E088312D9
:10238000A8001E08A9001030F700F70BC5290000AF
:102390000830F8001F08C73978049F001030F70094
:1023A000F70BD02900001F151F19D42983161E080A
:1023B0008312AA001E08AB001030F700F70BDE29CD
:1023C00000002908F1002808F0000A1278260A16F1
:1023D0005230F3002730F2002030F1007A30F00064
:1023E0007A08FE007908FD007808FC007708FB00F9
:1023F0000A1295260A167A08BD007908BC007808EA
:10240000BB007708BA0083107A08F3007908F2005D
:102410007808F1007708F000FE01FD012030FC0093
:102420008430FB000A128A1500200A168A117A08E5
:10243000A3007908A2007808A1007708A0002B0863
:10244000F1002A08F0000A1278260A166930F30013
:102450006F30F2007030F1007A30F0007A08FE0040
:102460007908FD007808FC007708FB000A12952621
:102470000A167A08BD007908BC007808BB00770806
:10248000BA0083147A08F3007908F2007808F100A2
:102490007708F000FE01FD017030FC008330FB0086
:1024A0000A128A1500200A168A117A08A7007908EC
:1024B000A6007808A5007708A4002308BD0022081C
:1024C000BC002108BB002008BA002708C10026086C
:1024D000C0002508BF002408BE000A124F2F0A16AC
:1024E0007908B1007808B0003008840083133118EF
:1024F00083170008BA0001303007840083133118B5
:1025000083170008BB0002303007840083133118A2
:1025100083170008BC003A08BD003B08BE003C0819
:10252000BF002308C3002208C2002108C100200800
:10253000C0002708C7002608C6002508C5002408D3
:10254000C4000A128A151C2A0A168A117A08B500D4
:102550007908B4007808B3007708B2003508F300B2
:102560003408F2003308F1003208F000FE01FD01EA
:102570004830FC008530FB000A128A1543210A16F8
:102580008A117A08B9007908B8007808B700770886
:10259000B6000C30C7000A128A156F270A168A1176
:1025A0005430C7000A128A156F270A168A113A306A
:1025B000C7000A128A156F270A168A11893084000B
:1025C0002308BD002208BC002108BB002008BA0077
:1025D0000230BE0000202C30C7000A128A156F2777
:1025E0000A168A116C30C7000A128A156F270A165C
:1025F0008A113A30C7000A128A156F270A168A1103
:10260000893084002708BD002608BC002508BB00CF
:102610002408BA000230BE000020D43003178D0019
:1026200005308F00031005300313BA00FA288930F3
:1026300084003908BD003808BC003708BB003608E4
:10264000BA000230BE0000206430C8000A12D8254B
:062650000A16AF29630029
:02400E003A3F37
:00000001FF
;PIC16F877A
;CRC=C430  CREATED="25-май-22 03:18"
